{
  "contractName": "DigitalArt",
  "abi": [
    {
      "inputs": [
        {
          "internalType": "string",
          "name": "name",
          "type": "string"
        },
        {
          "internalType": "string",
          "name": "symbol",
          "type": "string"
        }
      ],
      "stateMutability": "nonpayable",
      "type": "constructor"
    },
    {
      "anonymous": false,
      "inputs": [
        {
          "indexed": true,
          "internalType": "address",
          "name": "owner",
          "type": "address"
        },
        {
          "indexed": true,
          "internalType": "address",
          "name": "approved",
          "type": "address"
        },
        {
          "indexed": true,
          "internalType": "uint256",
          "name": "tokenId",
          "type": "uint256"
        }
      ],
      "name": "Approval",
      "type": "event"
    },
    {
      "anonymous": false,
      "inputs": [
        {
          "indexed": true,
          "internalType": "address",
          "name": "owner",
          "type": "address"
        },
        {
          "indexed": true,
          "internalType": "address",
          "name": "operator",
          "type": "address"
        },
        {
          "indexed": false,
          "internalType": "bool",
          "name": "approved",
          "type": "bool"
        }
      ],
      "name": "ApprovalForAll",
      "type": "event"
    },
    {
      "anonymous": false,
      "inputs": [
        {
          "indexed": false,
          "internalType": "uint256",
          "name": "_tokenId",
          "type": "uint256"
        },
        {
          "indexed": false,
          "internalType": "uint256",
          "name": "_status",
          "type": "uint256"
        },
        {
          "indexed": false,
          "internalType": "uint256",
          "name": "_price",
          "type": "uint256"
        }
      ],
      "name": "LogArtResell",
      "type": "event"
    },
    {
      "anonymous": false,
      "inputs": [
        {
          "indexed": false,
          "internalType": "uint256",
          "name": "_tokenId",
          "type": "uint256"
        },
        {
          "indexed": false,
          "internalType": "string",
          "name": "_title",
          "type": "string"
        },
        {
          "indexed": false,
          "internalType": "string",
          "name": "_authorName",
          "type": "string"
        },
        {
          "indexed": false,
          "internalType": "uint256",
          "name": "_price",
          "type": "uint256"
        },
        {
          "indexed": false,
          "internalType": "address",
          "name": "_author",
          "type": "address"
        },
        {
          "indexed": false,
          "internalType": "address",
          "name": "_currentOwner",
          "type": "address"
        },
        {
          "indexed": false,
          "internalType": "address",
          "name": "_buyer",
          "type": "address"
        }
      ],
      "name": "LogArtSold",
      "type": "event"
    },
    {
      "anonymous": false,
      "inputs": [
        {
          "indexed": false,
          "internalType": "uint256",
          "name": "_tokenId",
          "type": "uint256"
        },
        {
          "indexed": false,
          "internalType": "string",
          "name": "_title",
          "type": "string"
        },
        {
          "indexed": false,
          "internalType": "string",
          "name": "_category",
          "type": "string"
        },
        {
          "indexed": false,
          "internalType": "string",
          "name": "authorName",
          "type": "string"
        },
        {
          "indexed": false,
          "internalType": "uint256",
          "name": "_price",
          "type": "uint256"
        },
        {
          "indexed": false,
          "internalType": "address",
          "name": "_author",
          "type": "address"
        },
        {
          "indexed": false,
          "internalType": "address",
          "name": "_currentOwner",
          "type": "address"
        }
      ],
      "name": "LogArtTokenCreation",
      "type": "event"
    },
    {
      "anonymous": false,
      "inputs": [
        {
          "indexed": true,
          "internalType": "address",
          "name": "from",
          "type": "address"
        },
        {
          "indexed": true,
          "internalType": "address",
          "name": "to",
          "type": "address"
        },
        {
          "indexed": true,
          "internalType": "uint256",
          "name": "tokenId",
          "type": "uint256"
        }
      ],
      "name": "Transfer",
      "type": "event"
    },
    {
      "inputs": [
        {
          "internalType": "address",
          "name": "to",
          "type": "address"
        },
        {
          "internalType": "uint256",
          "name": "tokenId",
          "type": "uint256"
        }
      ],
      "name": "approve",
      "outputs": [],
      "stateMutability": "nonpayable",
      "type": "function"
    },
    {
      "inputs": [
        {
          "internalType": "uint256",
          "name": "",
          "type": "uint256"
        }
      ],
      "name": "arts",
      "outputs": [
        {
          "internalType": "uint256",
          "name": "id",
          "type": "uint256"
        },
        {
          "internalType": "string",
          "name": "title",
          "type": "string"
        },
        {
          "internalType": "string",
          "name": "description",
          "type": "string"
        },
        {
          "internalType": "uint256",
          "name": "price",
          "type": "uint256"
        },
        {
          "internalType": "string",
          "name": "date",
          "type": "string"
        },
        {
          "internalType": "string",
          "name": "authorName",
          "type": "string"
        },
        {
          "internalType": "address payable",
          "name": "author",
          "type": "address"
        },
        {
          "internalType": "address payable",
          "name": "owner",
          "type": "address"
        },
        {
          "internalType": "enum DigitalArt.SoldStatus",
          "name": "status",
          "type": "uint8"
        },
        {
          "internalType": "string",
          "name": "image",
          "type": "string"
        }
      ],
      "stateMutability": "view",
      "type": "function"
    },
    {
      "inputs": [
        {
          "internalType": "address",
          "name": "owner",
          "type": "address"
        }
      ],
      "name": "balanceOf",
      "outputs": [
        {
          "internalType": "uint256",
          "name": "",
          "type": "uint256"
        }
      ],
      "stateMutability": "view",
      "type": "function"
    },
    {
      "inputs": [],
      "name": "baseURI",
      "outputs": [
        {
          "internalType": "string",
          "name": "",
          "type": "string"
        }
      ],
      "stateMutability": "view",
      "type": "function"
    },
    {
      "inputs": [
        {
          "internalType": "uint256",
          "name": "tokenId",
          "type": "uint256"
        }
      ],
      "name": "getApproved",
      "outputs": [
        {
          "internalType": "address",
          "name": "",
          "type": "address"
        }
      ],
      "stateMutability": "view",
      "type": "function"
    },
    {
      "inputs": [
        {
          "internalType": "address",
          "name": "owner",
          "type": "address"
        },
        {
          "internalType": "address",
          "name": "operator",
          "type": "address"
        }
      ],
      "name": "isApprovedForAll",
      "outputs": [
        {
          "internalType": "bool",
          "name": "",
          "type": "bool"
        }
      ],
      "stateMutability": "view",
      "type": "function"
    },
    {
      "inputs": [],
      "name": "name",
      "outputs": [
        {
          "internalType": "string",
          "name": "",
          "type": "string"
        }
      ],
      "stateMutability": "view",
      "type": "function"
    },
    {
      "inputs": [
        {
          "internalType": "uint256",
          "name": "tokenId",
          "type": "uint256"
        }
      ],
      "name": "ownerOf",
      "outputs": [
        {
          "internalType": "address",
          "name": "",
          "type": "address"
        }
      ],
      "stateMutability": "view",
      "type": "function"
    },
    {
      "inputs": [
        {
          "internalType": "address",
          "name": "from",
          "type": "address"
        },
        {
          "internalType": "address",
          "name": "to",
          "type": "address"
        },
        {
          "internalType": "uint256",
          "name": "tokenId",
          "type": "uint256"
        }
      ],
      "name": "safeTransferFrom",
      "outputs": [],
      "stateMutability": "nonpayable",
      "type": "function"
    },
    {
      "inputs": [
        {
          "internalType": "address",
          "name": "from",
          "type": "address"
        },
        {
          "internalType": "address",
          "name": "to",
          "type": "address"
        },
        {
          "internalType": "uint256",
          "name": "tokenId",
          "type": "uint256"
        },
        {
          "internalType": "bytes",
          "name": "_data",
          "type": "bytes"
        }
      ],
      "name": "safeTransferFrom",
      "outputs": [],
      "stateMutability": "nonpayable",
      "type": "function"
    },
    {
      "inputs": [
        {
          "internalType": "address",
          "name": "operator",
          "type": "address"
        },
        {
          "internalType": "bool",
          "name": "approved",
          "type": "bool"
        }
      ],
      "name": "setApprovalForAll",
      "outputs": [],
      "stateMutability": "nonpayable",
      "type": "function"
    },
    {
      "inputs": [
        {
          "internalType": "bytes4",
          "name": "interfaceId",
          "type": "bytes4"
        }
      ],
      "name": "supportsInterface",
      "outputs": [
        {
          "internalType": "bool",
          "name": "",
          "type": "bool"
        }
      ],
      "stateMutability": "view",
      "type": "function"
    },
    {
      "inputs": [],
      "name": "symbol",
      "outputs": [
        {
          "internalType": "string",
          "name": "",
          "type": "string"
        }
      ],
      "stateMutability": "view",
      "type": "function"
    },
    {
      "inputs": [
        {
          "internalType": "uint256",
          "name": "index",
          "type": "uint256"
        }
      ],
      "name": "tokenByIndex",
      "outputs": [
        {
          "internalType": "uint256",
          "name": "",
          "type": "uint256"
        }
      ],
      "stateMutability": "view",
      "type": "function"
    },
    {
      "inputs": [
        {
          "internalType": "address",
          "name": "owner",
          "type": "address"
        },
        {
          "internalType": "uint256",
          "name": "index",
          "type": "uint256"
        }
      ],
      "name": "tokenOfOwnerByIndex",
      "outputs": [
        {
          "internalType": "uint256",
          "name": "",
          "type": "uint256"
        }
      ],
      "stateMutability": "view",
      "type": "function"
    },
    {
      "inputs": [
        {
          "internalType": "uint256",
          "name": "tokenId",
          "type": "uint256"
        }
      ],
      "name": "tokenURI",
      "outputs": [
        {
          "internalType": "string",
          "name": "",
          "type": "string"
        }
      ],
      "stateMutability": "view",
      "type": "function"
    },
    {
      "inputs": [],
      "name": "totalSupply",
      "outputs": [
        {
          "internalType": "uint256",
          "name": "",
          "type": "uint256"
        }
      ],
      "stateMutability": "view",
      "type": "function"
    },
    {
      "inputs": [
        {
          "internalType": "address",
          "name": "from",
          "type": "address"
        },
        {
          "internalType": "address",
          "name": "to",
          "type": "address"
        },
        {
          "internalType": "uint256",
          "name": "tokenId",
          "type": "uint256"
        }
      ],
      "name": "transferFrom",
      "outputs": [],
      "stateMutability": "nonpayable",
      "type": "function"
    },
    {
      "inputs": [
        {
          "internalType": "string",
          "name": "_title",
          "type": "string"
        },
        {
          "internalType": "string",
          "name": "_description",
          "type": "string"
        },
        {
          "internalType": "string",
          "name": "_date",
          "type": "string"
        },
        {
          "internalType": "string",
          "name": "_authorName",
          "type": "string"
        },
        {
          "internalType": "uint256",
          "name": "_price",
          "type": "uint256"
        },
        {
          "internalType": "string",
          "name": "_image",
          "type": "string"
        }
      ],
      "name": "createTokenAndSellArt",
      "outputs": [
        {
          "internalType": "uint256",
          "name": "",
          "type": "uint256"
        }
      ],
      "stateMutability": "nonpayable",
      "type": "function"
    }
  ],
  "bytecode": "0x60806040523480156200001157600080fd5b5060405162003f0c38038062003f0c833981810160405260408110156200003757600080fd5b81019080805160405193929190846401000000008211156200005857600080fd5b838201915060208201858111156200006f57600080fd5b82518660018202830111640100000000821117156200008d57600080fd5b8083526020830192505050908051906020019080838360005b83811015620000c3578082015181840152602081019050620000a6565b50505050905090810190601f168015620000f15780820380516001836020036101000a031916815260200191505b50604052602001805160405193929190846401000000008211156200011557600080fd5b838201915060208201858111156200012c57600080fd5b82518660018202830111640100000000821117156200014a57600080fd5b8083526020830192505050908051906020019080838360005b838110156200018057808201518184015260208101905062000163565b50505050905090810190601f168015620001ae5780820380516001836020036101000a031916815260200191505b50604052505050600b8054600181600116156101000203166002900480601f0160208091040260200160405190810160405280929190818152602001828054600181600116156101000203166002900480156200024f5780601f1062000223576101008083540402835291602001916200024f565b820191906000526020600020905b8154815290600101906020018083116200023157829003601f168201915b5050505050600c8054600181600116156101000203166002900480601f016020809104026020016040519081016040528092919081815260200182805460018160011615610100020316600290048015620002ee5780601f10620002c257610100808354040283529160200191620002ee565b820191906000526020600020905b815481529060010190602001808311620002d057829003601f168201915b50505050506200030b6301ffc9a760e01b620003c160201b60201c565b816006908051906020019062000323929190620004ca565b5080600790805190602001906200033c929190620004ca565b50620003556380ac58cd60e01b620003c160201b60201c565b6200036d635b5e139f60e01b620003c160201b60201c565b6200038563780e9d6360e01b620003c160201b60201c565b505081600b90805190602001906200039f929190620004ca565b5080600c9080519060200190620003b8929190620004ca565b50505062000580565b63ffffffff60e01b817bffffffffffffffffffffffffffffffffffffffffffffffffffffffff191614156200045e576040517f08c379a000000000000000000000000000000000000000000000000000000000815260040180806020018281038252601c8152602001807f4552433136353a20696e76616c696420696e746572666163652069640000000081525060200191505060405180910390fd5b6001600080837bffffffffffffffffffffffffffffffffffffffffffffffffffffffff19167bffffffffffffffffffffffffffffffffffffffffffffffffffffffff1916815260200190815260200160002060006101000a81548160ff02191690831515021790555050565b828054600181600116156101000203166002900490600052602060002090601f0160209004810192826200050257600085556200054e565b82601f106200051d57805160ff19168380011785556200054e565b828001600101855582156200054e579182015b828111156200054d57825182559160200191906001019062000530565b5b5090506200055d919062000561565b5090565b5b808211156200057c57600081600090555060010162000562565b5090565b61397c80620005906000396000f3fe608060405234801561001057600080fd5b50600436106101215760003560e01c80636352211e116100ad578063b88d4fde11610071578063b88d4fde14610656578063c87b56dd1461075b578063e49a3d3b14610802578063e57a104a14610b37578063e985e9c514610de857610121565b80636352211e146104505780636c0360eb146104a857806370a082311461052b57806395d89b4114610583578063a22cb4651461060657610121565b806318160ddd116100f457806318160ddd146102b257806323b872dd146102d05780632f745c591461033e57806342842e0e146103a05780634f6ccce71461040e57610121565b806301ffc9a71461012657806306fdde0314610189578063081812fc1461020c578063095ea7b314610264575b600080fd5b6101716004803603602081101561013c57600080fd5b8101908080357bffffffffffffffffffffffffffffffffffffffffffffffffffffffff19169060200190929190505050610e62565b60405180821515815260200191505060405180910390f35b610191610ec9565b6040518080602001828103825283818151815260200191508051906020019080838360005b838110156101d15780820151818401526020810190506101b6565b50505050905090810190601f1680156101fe5780820380516001836020036101000a031916815260200191505b509250505060405180910390f35b6102386004803603602081101561022257600080fd5b8101908080359060200190929190505050610f6b565b604051808273ffffffffffffffffffffffffffffffffffffffff16815260200191505060405180910390f35b6102b06004803603604081101561027a57600080fd5b81019080803573ffffffffffffffffffffffffffffffffffffffff16906020019092919080359060200190929190505050611006565b005b6102ba61114a565b6040518082815260200191505060405180910390f35b61033c600480360360608110156102e657600080fd5b81019080803573ffffffffffffffffffffffffffffffffffffffff169060200190929190803573ffffffffffffffffffffffffffffffffffffffff1690602001909291908035906020019092919050505061115b565b005b61038a6004803603604081101561035457600080fd5b81019080803573ffffffffffffffffffffffffffffffffffffffff169060200190929190803590602001909291905050506111d1565b6040518082815260200191505060405180910390f35b61040c600480360360608110156103b657600080fd5b81019080803573ffffffffffffffffffffffffffffffffffffffff169060200190929190803573ffffffffffffffffffffffffffffffffffffffff1690602001909291908035906020019092919050505061122c565b005b61043a6004803603602081101561042457600080fd5b810190808035906020019092919050505061124c565b6040518082815260200191505060405180910390f35b61047c6004803603602081101561046657600080fd5b810190808035906020019092919050505061126f565b604051808273ffffffffffffffffffffffffffffffffffffffff16815260200191505060405180910390f35b6104b06112a6565b6040518080602001828103825283818151815260200191508051906020019080838360005b838110156104f05780820151818401526020810190506104d5565b50505050905090810190601f16801561051d5780820380516001836020036101000a031916815260200191505b509250505060405180910390f35b61056d6004803603602081101561054157600080fd5b81019080803573ffffffffffffffffffffffffffffffffffffffff169060200190929190505050611348565b6040518082815260200191505060405180910390f35b61058b61141d565b6040518080602001828103825283818151815260200191508051906020019080838360005b838110156105cb5780820151818401526020810190506105b0565b50505050905090810190601f1680156105f85780820380516001836020036101000a031916815260200191505b509250505060405180910390f35b6106546004803603604081101561061c57600080fd5b81019080803573ffffffffffffffffffffffffffffffffffffffff1690602001909291908035151590602001909291905050506114bf565b005b6107596004803603608081101561066c57600080fd5b81019080803573ffffffffffffffffffffffffffffffffffffffff169060200190929190803573ffffffffffffffffffffffffffffffffffffffff16906020019092919080359060200190929190803590602001906401000000008111156106d357600080fd5b8201836020820111156106e557600080fd5b8035906020019184600183028401116401000000008311171561070757600080fd5b91908080601f016020809104026020016040519081016040528093929190818152602001838380828437600081840152601f19601f820116905080830192505050505050509192919290505050611675565b005b6107876004803603602081101561077157600080fd5b81019080803590602001909291905050506116ed565b6040518080602001828103825283818151815260200191508051906020019080838360005b838110156107c75780820151818401526020810190506107ac565b50505050905090810190601f1680156107f45780820380516001836020036101000a031916815260200191505b509250505060405180910390f35b610b21600480360360c081101561081857600080fd5b810190808035906020019064010000000081111561083557600080fd5b82018360208201111561084757600080fd5b8035906020019184600183028401116401000000008311171561086957600080fd5b91908080601f016020809104026020016040519081016040528093929190818152602001838380828437600081840152601f19601f820116905080830192505050505050509192919290803590602001906401000000008111156108cc57600080fd5b8201836020820111156108de57600080fd5b8035906020019184600183028401116401000000008311171561090057600080fd5b91908080601f016020809104026020016040519081016040528093929190818152602001838380828437600081840152601f19601f8201169050808301925050505050505091929192908035906020019064010000000081111561096357600080fd5b82018360208201111561097557600080fd5b8035906020019184600183028401116401000000008311171561099757600080fd5b91908080601f016020809104026020016040519081016040528093929190818152602001838380828437600081840152601f19601f820116905080830192505050505050509192919290803590602001906401000000008111156109fa57600080fd5b820183602082011115610a0c57600080fd5b80359060200191846001830284011164010000000083111715610a2e57600080fd5b91908080601f016020809104026020016040519081016040528093929190818152602001838380828437600081840152601f19601f8201169050808301925050505050505091929192908035906020019092919080359060200190640100000000811115610a9b57600080fd5b820183602082011115610aad57600080fd5b80359060200191846001830284011164010000000083111715610acf57600080fd5b91908080601f016020809104026020016040519081016040528093929190818152602001838380828437600081840152601f19601f8201169050808301925050505050505091929192905050506119be565b6040518082815260200191505060405180910390f35b610b6360048036036020811015610b4d57600080fd5b8101908080359060200190929190505050611fae565b604051808b815260200180602001806020018a815260200180602001806020018973ffffffffffffffffffffffffffffffffffffffff1681526020018873ffffffffffffffffffffffffffffffffffffffff168152602001876001811115610bc757fe5b81526020018060200186810386528f818151815260200191508051906020019080838360005b83811015610c08578082015181840152602081019050610bed565b50505050905090810190601f168015610c355780820380516001836020036101000a031916815260200191505b5086810385528e818151815260200191508051906020019080838360005b83811015610c6e578082015181840152602081019050610c53565b50505050905090810190601f168015610c9b5780820380516001836020036101000a031916815260200191505b5086810384528c818151815260200191508051906020019080838360005b83811015610cd4578082015181840152602081019050610cb9565b50505050905090810190601f168015610d015780820380516001836020036101000a031916815260200191505b5086810383528b818151815260200191508051906020019080838360005b83811015610d3a578082015181840152602081019050610d1f565b50505050905090810190601f168015610d675780820380516001836020036101000a031916815260200191505b50868103825287818151815260200191508051906020019080838360005b83811015610da0578082015181840152602081019050610d85565b50505050905090810190601f168015610dcd5780820380516001836020036101000a031916815260200191505b509f5050505050505050505050505050505060405180910390f35b610e4a60048036036040811015610dfe57600080fd5b81019080803573ffffffffffffffffffffffffffffffffffffffff169060200190929190803573ffffffffffffffffffffffffffffffffffffffff169060200190929190505050612357565b60405180821515815260200191505060405180910390f35b6000806000837bffffffffffffffffffffffffffffffffffffffffffffffffffffffff19167bffffffffffffffffffffffffffffffffffffffffffffffffffffffff1916815260200190815260200160002060009054906101000a900460ff169050919050565b606060068054600181600116156101000203166002900480601f016020809104026020016040519081016040528092919081815260200182805460018160011615610100020316600290048015610f615780601f10610f3657610100808354040283529160200191610f61565b820191906000526020600020905b815481529060010190602001808311610f4457829003601f168201915b5050505050905090565b6000610f76826123eb565b610fcb576040517f08c379a000000000000000000000000000000000000000000000000000000000815260040180806020018281038252602c815260200180613871602c913960400191505060405180910390fd5b6004600083815260200190815260200160002060009054906101000a900473ffffffffffffffffffffffffffffffffffffffff169050919050565b60006110118261126f565b90508073ffffffffffffffffffffffffffffffffffffffff168373ffffffffffffffffffffffffffffffffffffffff161415611098576040517f08c379a00000000000000000000000000000000000000000000000000000000081526004018080602001828103825260218152602001806138f56021913960400191505060405180910390fd5b8073ffffffffffffffffffffffffffffffffffffffff166110b7612408565b73ffffffffffffffffffffffffffffffffffffffff1614806110e657506110e5816110e0612408565b612357565b5b61113b576040517f08c379a00000000000000000000000000000000000000000000000000000000081526004018080602001828103825260388152602001806137c46038913960400191505060405180910390fd5b6111458383612410565b505050565b600061115660026124c9565b905090565b61116c611166612408565b826124de565b6111c1576040517f08c379a00000000000000000000000000000000000000000000000000000000081526004018080602001828103825260318152602001806139166031913960400191505060405180910390fd5b6111cc8383836125d2565b505050565b600061122482600160008673ffffffffffffffffffffffffffffffffffffffff1673ffffffffffffffffffffffffffffffffffffffff16815260200190815260200160002061281590919063ffffffff16565b905092915050565b61124783838360405180602001604052806000815250611675565b505050565b60008061126383600261282f90919063ffffffff16565b50905080915050919050565b600061129f8260405180606001604052806029815260200161382660299139600261285b9092919063ffffffff16565b9050919050565b606060098054600181600116156101000203166002900480601f01602080910402602001604051908101604052809291908181526020018280546001816001161561010002031660029004801561133e5780601f106113135761010080835404028352916020019161133e565b820191906000526020600020905b81548152906001019060200180831161132157829003601f168201915b5050505050905090565b60008073ffffffffffffffffffffffffffffffffffffffff168273ffffffffffffffffffffffffffffffffffffffff1614156113cf576040517f08c379a000000000000000000000000000000000000000000000000000000000815260040180806020018281038252602a8152602001806137fc602a913960400191505060405180910390fd5b611416600160008473ffffffffffffffffffffffffffffffffffffffff1673ffffffffffffffffffffffffffffffffffffffff16815260200190815260200160002061287a565b9050919050565b606060078054600181600116156101000203166002900480601f0160208091040260200160405190810160405280929190818152602001828054600181600116156101000203166002900480156114b55780601f1061148a576101008083540402835291602001916114b5565b820191906000526020600020905b81548152906001019060200180831161149857829003601f168201915b5050505050905090565b6114c7612408565b73ffffffffffffffffffffffffffffffffffffffff168273ffffffffffffffffffffffffffffffffffffffff161415611568576040517f08c379a00000000000000000000000000000000000000000000000000000000081526004018080602001828103825260198152602001807f4552433732313a20617070726f766520746f2063616c6c65720000000000000081525060200191505060405180910390fd5b8060056000611575612408565b73ffffffffffffffffffffffffffffffffffffffff1673ffffffffffffffffffffffffffffffffffffffff16815260200190815260200160002060008473ffffffffffffffffffffffffffffffffffffffff1673ffffffffffffffffffffffffffffffffffffffff16815260200190815260200160002060006101000a81548160ff0219169083151502179055508173ffffffffffffffffffffffffffffffffffffffff16611622612408565b73ffffffffffffffffffffffffffffffffffffffff167f17307eab39ab6107e8899845ad3d59bd9653f200f220920489ca2b5937696c318360405180821515815260200191505060405180910390a35050565b611686611680612408565b836124de565b6116db576040517f08c379a00000000000000000000000000000000000000000000000000000000081526004018080602001828103825260318152602001806139166031913960400191505060405180910390fd5b6116e78484848461288f565b50505050565b60606116f8826123eb565b61174d576040517f08c379a000000000000000000000000000000000000000000000000000000000815260040180806020018281038252602f8152602001806138c6602f913960400191505060405180910390fd5b6000600860008481526020019081526020016000208054600181600116156101000203166002900480601f0160208091040260200160405190810160405280929190818152602001828054600181600116156101000203166002900480156117f65780601f106117cb576101008083540402835291602001916117f6565b820191906000526020600020905b8154815290600101906020018083116117d957829003601f168201915b5050505050905060006118076112a6565b905060008151141561181d5781925050506119b9565b6000825111156118ee5780826040516020018083805190602001908083835b6020831061185f578051825260208201915060208101905060208303925061183c565b6001836020036101000a03801982511681845116808217855250505050505090500182805190602001908083835b602083106118b0578051825260208201915060208101905060208303925061188d565b6001836020036101000a03801982511681845116808217855250505050505090500192505050604051602081830303815290604052925050506119b9565b806118f885612901565b6040516020018083805190602001908083835b6020831061192e578051825260208201915060208101905060208303925061190b565b6001836020036101000a03801982511681845116808217855250505050505090500182805190602001908083835b6020831061197f578051825260208201915060208101905060208303925061195c565b6001836020036101000a03801982511681845116808217855250505050505090500192505050604051602081830303815290604052925050505b919050565b600080875111611a36576040517f08c379a00000000000000000000000000000000000000000000000000000000081526004018080602001828103825260198152602001807f546865207469746c652063616e6e6f7420626520656d7074790000000000000081525060200191505060405180910390fd5b6000855111611aad576040517f08c379a00000000000000000000000000000000000000000000000000000000081526004018080602001828103825260188152602001807f54686520646174652063616e6e6f7420626520656d707479000000000000000081525060200191505060405180910390fd5b6000865111611b24576040517f08c379a000000000000000000000000000000000000000000000000000000000815260040180806020018281038252601f8152602001807f546865206465736372697074696f6e2063616e6e6f7420626520656d7074790081525060200191505060405180910390fd5b6000825111611b9b576040517f08c379a00000000000000000000000000000000000000000000000000000000081526004018080602001828103825260198152602001807f54686520696d6167652063616e6e6f7420626520656d7074790000000000000081525060200191505060405180910390fd5b611ba5600a612a48565b6000611bb1600a612a5e565b905060006040518061014001604052808381526020018a81526020018981526020018681526020018881526020018781526020013373ffffffffffffffffffffffffffffffffffffffff1681526020013373ffffffffffffffffffffffffffffffffffffffff16815260200160006001811115611c2a57fe5b8152602001858152509050600d819080600181540180825580915050600190039060005260206000209060090201600090919091909150600082015181600001556020820151816001019080519060200190611c8792919061364e565b506040820151816002019080519060200190611ca492919061364e565b50606082015181600301556080820151816004019080519060200190611ccb92919061364e565b5060a0820151816005019080519060200190611ce892919061364e565b5060c08201518160060160006101000a81548173ffffffffffffffffffffffffffffffffffffffff021916908373ffffffffffffffffffffffffffffffffffffffff16021790555060e08201518160070160006101000a81548173ffffffffffffffffffffffffffffffffffffffff021916908373ffffffffffffffffffffffffffffffffffffffff1602179055506101008201518160070160146101000a81548160ff02191690836001811115611d9c57fe5b0217905550610120820151816008019080519060200190611dbe92919061364e565b505050611dcb3383612a6c565b600e600081548092919060010191905055507f2cb9a736c1371093f19bc9c0bac035b5d2e95977f53796286c5f8a1ae9d003e8828a8989893333604051808881526020018060200180602001806020018781526020018673ffffffffffffffffffffffffffffffffffffffff1681526020018573ffffffffffffffffffffffffffffffffffffffff16815260200184810384528a818151815260200191508051906020019080838360005b83811015611e91578082015181840152602081019050611e76565b50505050905090810190601f168015611ebe5780820380516001836020036101000a031916815260200191505b50848103835289818151815260200191508051906020019080838360005b83811015611ef7578082015181840152602081019050611edc565b50505050905090810190601f168015611f245780820380516001836020036101000a031916815260200191505b50848103825288818151815260200191508051906020019080838360005b83811015611f5d578082015181840152602081019050611f42565b50505050905090810190601f168015611f8a5780820380516001836020036101000a031916815260200191505b509a505050505050505050505060405180910390a181925050509695505050505050565b600d8181548110611fbe57600080fd5b9060005260206000209060090201600091509050806000015490806001018054600181600116156101000203166002900480601f0160208091040260200160405190810160405280929190818152602001828054600181600116156101000203166002900480156120705780601f1061204557610100808354040283529160200191612070565b820191906000526020600020905b81548152906001019060200180831161205357829003601f168201915b505050505090806002018054600181600116156101000203166002900480601f01602080910402602001604051908101604052809291908181526020018280546001816001161561010002031660029004801561210e5780601f106120e35761010080835404028352916020019161210e565b820191906000526020600020905b8154815290600101906020018083116120f157829003601f168201915b505050505090806003015490806004018054600181600116156101000203166002900480601f0160208091040260200160405190810160405280929190818152602001828054600181600116156101000203166002900480156121b25780601f10612187576101008083540402835291602001916121b2565b820191906000526020600020905b81548152906001019060200180831161219557829003601f168201915b505050505090806005018054600181600116156101000203166002900480601f0160208091040260200160405190810160405280929190818152602001828054600181600116156101000203166002900480156122505780601f1061222557610100808354040283529160200191612250565b820191906000526020600020905b81548152906001019060200180831161223357829003601f168201915b5050505050908060060160009054906101000a900473ffffffffffffffffffffffffffffffffffffffff16908060070160009054906101000a900473ffffffffffffffffffffffffffffffffffffffff16908060070160149054906101000a900460ff1690806008018054600181600116156101000203166002900480601f01602080910402602001604051908101604052809291908181526020018280546001816001161561010002031660029004801561234d5780601f106123225761010080835404028352916020019161234d565b820191906000526020600020905b81548152906001019060200180831161233057829003601f168201915b505050505090508a565b6000600560008473ffffffffffffffffffffffffffffffffffffffff1673ffffffffffffffffffffffffffffffffffffffff16815260200190815260200160002060008373ffffffffffffffffffffffffffffffffffffffff1673ffffffffffffffffffffffffffffffffffffffff16815260200190815260200160002060009054906101000a900460ff16905092915050565b6000612401826002612c6090919063ffffffff16565b9050919050565b600033905090565b816004600083815260200190815260200160002060006101000a81548173ffffffffffffffffffffffffffffffffffffffff021916908373ffffffffffffffffffffffffffffffffffffffff160217905550808273ffffffffffffffffffffffffffffffffffffffff166124838361126f565b73ffffffffffffffffffffffffffffffffffffffff167f8c5be1e5ebec7d5bd14f71427d1e84f3dd0314c0f7b2291e5b200ac8c7c3b92560405160405180910390a45050565b60006124d782600001612c7a565b9050919050565b60006124e9826123eb565b61253e576040517f08c379a000000000000000000000000000000000000000000000000000000000815260040180806020018281038252602c815260200180613798602c913960400191505060405180910390fd5b60006125498361126f565b90508073ffffffffffffffffffffffffffffffffffffffff168473ffffffffffffffffffffffffffffffffffffffff1614806125b857508373ffffffffffffffffffffffffffffffffffffffff166125a084610f6b565b73ffffffffffffffffffffffffffffffffffffffff16145b806125c957506125c88185612357565b5b91505092915050565b8273ffffffffffffffffffffffffffffffffffffffff166125f28261126f565b73ffffffffffffffffffffffffffffffffffffffff161461265e576040517f08c379a000000000000000000000000000000000000000000000000000000000815260040180806020018281038252602981526020018061389d6029913960400191505060405180910390fd5b600073ffffffffffffffffffffffffffffffffffffffff168273ffffffffffffffffffffffffffffffffffffffff1614156126e4576040517f08c379a000000000000000000000000000000000000000000000000000000000815260040180806020018281038252602481526020018061374e6024913960400191505060405180910390fd5b6126ef838383612c8b565b6126fa600082612410565b61274b81600160008673ffffffffffffffffffffffffffffffffffffffff1673ffffffffffffffffffffffffffffffffffffffff168152602001908152602001600020612c9090919063ffffffff16565b5061279d81600160008573ffffffffffffffffffffffffffffffffffffffff1673ffffffffffffffffffffffffffffffffffffffff168152602001908152602001600020612caa90919063ffffffff16565b506127b481836002612cc49092919063ffffffff16565b50808273ffffffffffffffffffffffffffffffffffffffff168473ffffffffffffffffffffffffffffffffffffffff167fddf252ad1be2c89b69c2b068fc378daa952ba7f163c4a11628f55a4df523b3ef60405160405180910390a4505050565b60006128248360000183612cf9565b60001c905092915050565b6000806000806128428660000186612d7c565b915091508160001c8160001c9350935050509250929050565b600061286e846000018460001b84612e15565b60001c90509392505050565b600061288882600001612f0b565b9050919050565b61289a8484846125d2565b6128a684848484612f1c565b6128fb576040517f08c379a000000000000000000000000000000000000000000000000000000000815260040180806020018281038252603281526020018061371c6032913960400191505060405180910390fd5b50505050565b60606000821415612949576040518060400160405280600181526020017f30000000000000000000000000000000000000000000000000000000000000008152509050612a43565b600082905060005b60008214612973578080600101915050600a828161296b57fe5b049150612951565b60008167ffffffffffffffff8111801561298c57600080fd5b506040519080825280601f01601f1916602001820160405280156129bf5781602001600182028036833780820191505090505b50905060006001830390508593505b60008414612a3b57600a84816129e057fe5b0660300160f81b828280600190039350815181106129fa57fe5b60200101907effffffffffffffffffffffffffffffffffffffffffffffffffffffffffffff1916908160001a905350600a8481612a3357fe5b0493506129ce565b819450505050505b919050565b6001816000016000828254019250508190555050565b600081600001549050919050565b600073ffffffffffffffffffffffffffffffffffffffff168273ffffffffffffffffffffffffffffffffffffffff161415612b0f576040517f08c379a00000000000000000000000000000000000000000000000000000000081526004018080602001828103825260208152602001807f4552433732313a206d696e7420746f20746865207a65726f206164647265737381525060200191505060405180910390fd5b612b18816123eb565b15612b8b576040517f08c379a000000000000000000000000000000000000000000000000000000000815260040180806020018281038252601c8152602001807f4552433732313a20746f6b656e20616c7265616479206d696e7465640000000081525060200191505060405180910390fd5b612b9760008383612c8b565b612be881600160008573ffffffffffffffffffffffffffffffffffffffff1673ffffffffffffffffffffffffffffffffffffffff168152602001908152602001600020612caa90919063ffffffff16565b50612bff81836002612cc49092919063ffffffff16565b50808273ffffffffffffffffffffffffffffffffffffffff16600073ffffffffffffffffffffffffffffffffffffffff167fddf252ad1be2c89b69c2b068fc378daa952ba7f163c4a11628f55a4df523b3ef60405160405180910390a45050565b6000612c72836000018360001b613135565b905092915050565b600081600001805490509050919050565b505050565b6000612ca2836000018360001b613158565b905092915050565b6000612cbc836000018360001b613240565b905092915050565b6000612cf0846000018460001b8473ffffffffffffffffffffffffffffffffffffffff1660001b6132b0565b90509392505050565b600081836000018054905011612d5a576040517f08c379a00000000000000000000000000000000000000000000000000000000081526004018080602001828103825260228152602001806136fa6022913960400191505060405180910390fd5b826000018281548110612d6957fe5b9060005260206000200154905092915050565b60008082846000018054905011612dde576040517f08c379a000000000000000000000000000000000000000000000000000000000815260040180806020018281038252602281526020018061384f6022913960400191505060405180910390fd5b6000846000018481548110612def57fe5b906000526020600020906002020190508060000154816001015492509250509250929050565b60008084600101600085815260200190815260200160002054905060008114158390612edc576040517f08c379a00000000000000000000000000000000000000000000000000000000081526004018080602001828103825283818151815260200191508051906020019080838360005b83811015612ea1578082015181840152602081019050612e86565b50505050905090810190601f168015612ece5780820380516001836020036101000a031916815260200191505b509250505060405180910390fd5b50846000016001820381548110612eef57fe5b9060005260206000209060020201600101549150509392505050565b600081600001805490509050919050565b6000612f3d8473ffffffffffffffffffffffffffffffffffffffff1661338c565b612f4a576001905061312d565b60006130b463150b7a0260e01b612f5f612408565b888787604051602401808573ffffffffffffffffffffffffffffffffffffffff1681526020018473ffffffffffffffffffffffffffffffffffffffff16815260200183815260200180602001828103825283818151815260200191508051906020019080838360005b83811015612fe3578082015181840152602081019050612fc8565b50505050905090810190601f1680156130105780820380516001836020036101000a031916815260200191505b5095505050505050604051602081830303815290604052907bffffffffffffffffffffffffffffffffffffffffffffffffffffffff19166020820180517bffffffffffffffffffffffffffffffffffffffffffffffffffffffff838183161783525050505060405180606001604052806032815260200161371c603291398773ffffffffffffffffffffffffffffffffffffffff1661339f9092919063ffffffff16565b905060008180602001905160208110156130cd57600080fd5b8101908080519060200190929190505050905063150b7a0260e01b7bffffffffffffffffffffffffffffffffffffffffffffffffffffffff1916817bffffffffffffffffffffffffffffffffffffffffffffffffffffffff191614925050505b949350505050565b600080836001016000848152602001908152602001600020541415905092915050565b6000808360010160008481526020019081526020016000205490506000811461323457600060018203905060006001866000018054905003905060008660000182815481106131a357fe5b90600052602060002001549050808760000184815481106131c057fe5b90600052602060002001819055506001830187600101600083815260200190815260200160002081905550866000018054806131f857fe5b6001900381819060005260206000200160009055905586600101600087815260200190815260200160002060009055600194505050505061323a565b60009150505b92915050565b600061324c83836133b7565b6132a55782600001829080600181540180825580915050600190039060005260206000200160009091909190915055826000018054905083600101600084815260200190815260200160002081905550600190506132aa565b600090505b92915050565b600080846001016000858152602001908152602001600020549050600081141561335757846000016040518060400160405280868152602001858152509080600181540180825580915050600190039060005260206000209060020201600090919091909150600082015181600001556020820151816001015550508460000180549050856001016000868152602001908152602001600020819055506001915050613385565b8285600001600183038154811061336a57fe5b90600052602060002090600202016001018190555060009150505b9392505050565b600080823b905060008111915050919050565b60606133ae84846000856133da565b90509392505050565b600080836001016000848152602001908152602001600020541415905092915050565b606082471015613435576040517f08c379a00000000000000000000000000000000000000000000000000000000081526004018080602001828103825260268152602001806137726026913960400191505060405180910390fd5b61343e8561338c565b6134b0576040517f08c379a000000000000000000000000000000000000000000000000000000000815260040180806020018281038252601d8152602001807f416464726573733a2063616c6c20746f206e6f6e2d636f6e747261637400000081525060200191505060405180910390fd5b6000808673ffffffffffffffffffffffffffffffffffffffff1685876040518082805190602001908083835b602083106134ff57805182526020820191506020810190506020830392506134dc565b6001836020036101000a03801982511681845116808217855250505050505090500191505060006040518083038185875af1925050503d8060008114613561576040519150601f19603f3d011682016040523d82523d6000602084013e613566565b606091505b5091509150613576828286613582565b92505050949350505050565b6060831561359257829050613647565b6000835111156135a55782518084602001fd5b816040517f08c379a00000000000000000000000000000000000000000000000000000000081526004018080602001828103825283818151815260200191508051906020019080838360005b8381101561360c5780820151818401526020810190506135f1565b50505050905090810190601f1680156136395780820380516001836020036101000a031916815260200191505b509250505060405180910390fd5b9392505050565b828054600181600116156101000203166002900490600052602060002090601f01602090048101928261368457600085556136cb565b82601f1061369d57805160ff19168380011785556136cb565b828001600101855582156136cb579182015b828111156136ca5782518255916020019190600101906136af565b5b5090506136d891906136dc565b5090565b5b808211156136f55760008160009055506001016136dd565b509056fe456e756d657261626c655365743a20696e646578206f7574206f6620626f756e64734552433732313a207472616e7366657220746f206e6f6e20455243373231526563656976657220696d706c656d656e7465724552433732313a207472616e7366657220746f20746865207a65726f2061646472657373416464726573733a20696e73756666696369656e742062616c616e636520666f722063616c6c4552433732313a206f70657261746f7220717565727920666f72206e6f6e6578697374656e7420746f6b656e4552433732313a20617070726f76652063616c6c6572206973206e6f74206f776e6572206e6f7220617070726f76656420666f7220616c6c4552433732313a2062616c616e636520717565727920666f7220746865207a65726f20616464726573734552433732313a206f776e657220717565727920666f72206e6f6e6578697374656e7420746f6b656e456e756d657261626c654d61703a20696e646578206f7574206f6620626f756e64734552433732313a20617070726f76656420717565727920666f72206e6f6e6578697374656e7420746f6b656e4552433732313a207472616e73666572206f6620746f6b656e2074686174206973206e6f74206f776e4552433732314d657461646174613a2055524920717565727920666f72206e6f6e6578697374656e7420746f6b656e4552433732313a20617070726f76616c20746f2063757272656e74206f776e65724552433732313a207472616e736665722063616c6c6572206973206e6f74206f776e6572206e6f7220617070726f766564a2646970667358221220471ad16a405b4099ca16435ace2c1203e395cfa1ef4fa77766fc6710c2ba313f64736f6c63430007060033",
  "immutableReferences": {},
  "source": "// SPDX-License-Identifier: MIT\npragma solidity >=0.4.22 <0.8.0;\n\nimport \"@openzeppelin/contracts/token/ERC721/ERC721.sol\";\nimport \"@openzeppelin/contracts/utils/Counters.sol\";\n\n\ncontract DigitalArt is ERC721 {\n\n  using Counters for Counters.Counter;\n  Counters.Counter private _tokenIds;\n\n  string private _name;\n  string private _symbol;\n\n  enum SoldStatus {FOR_SALE, SOLD}\n  Art[] public arts;\n  uint256 private pendingArtCount;\n  mapping(uint256 => ArtTxn[] ) private artTxns;\n\n  event LogArtSold(uint _tokenId, string _title, string _authorName, uint256 _price, address _author, address _currentOwner, address _buyer);\n  event LogArtTokenCreation(uint _tokenId, string _title, string _category, string authorName, uint256 _price, address _author, address _currentOwner);\n  event LogArtResell(uint _tokenId, uint _status, uint256 _price);\n\n  struct Art{\n    uint256 id;\n    string title;\n    string description;\n    uint256 price;\n    string date;\n    string authorName;\n    address payable author;\n    address payable owner;\n    SoldStatus status;\n    string image;\n  }\n\n  struct ArtTxn{\n    uint256 id;\n    uint256 price;\n    address seller;\n    address buyer;\n    uint txnDate;\n    uint status;\n  }\n\n  constructor (string memory name, string memory symbol) ERC721(_name, _symbol) public{\n    _name = name;\n    _symbol = symbol;\n  }\n\n  function createTokenAndSellArt(string memory _title, string memory _description, string memory _date,\n    string memory _authorName, uint256 _price, string memory _image) public returns (uint256) {\n\n    require(bytes(_title).length > 0, 'The title cannot be empty');\n    require(bytes(_date).length > 0, 'The date cannot be empty');\n    require(bytes(_description).length > 0, 'The description cannot be empty');\n    require(bytes(_image).length > 0, 'The image cannot be empty');\n\n    _tokenIds.increment();\n    uint256 newItemId = _tokenIds.current();\n\n    Art memory _art = Art({\n    id: newItemId,\n    title: _title,\n    description: _description,\n    price: _price,\n    date: _date,\n    authorName: _authorName,\n    author: msg.sender,\n    owner: msg.sender,\n    status: SoldStatus.FOR_SALE,\n    image: _image\n\n    });\n\n    arts.push(_art);\n    _mint(msg.sender, newItemId);\n    pendingArtCount++;\n    emit LogArtTokenCreation(newItemId, _title, _date, _authorName, _price, msg.sender, msg.sender);\n    return newItemId;\n\n  }\n\n\n}\n",
  "sourcePath": "C:/Users/User/Desktop/AFR/Semester-2/Design Patterns/labs/TokenFactory/contracts/DigitalArt.sol",
  "compiler": {
    "name": "solc",
    "version": "0.7.6+commit.7338295f.Emscripten.clang"
  },
  "schemaVersion": "3.3.3",
  "updatedAt": "2021-02-14T18:22:28.806Z",
  "devdoc": {
    "kind": "dev",
    "methods": {
      "approve(address,uint256)": {
        "details": "See {IERC721-approve}."
      },
      "balanceOf(address)": {
        "details": "See {IERC721-balanceOf}."
      },
      "baseURI()": {
        "details": "Returns the base URI set via {_setBaseURI}. This will be automatically added as a prefix in {tokenURI} to each token's URI, or to the token ID if no specific URI is set for that token ID."
      },
      "getApproved(uint256)": {
        "details": "See {IERC721-getApproved}."
      },
      "isApprovedForAll(address,address)": {
        "details": "See {IERC721-isApprovedForAll}."
      },
      "name()": {
        "details": "See {IERC721Metadata-name}."
      },
      "ownerOf(uint256)": {
        "details": "See {IERC721-ownerOf}."
      },
      "safeTransferFrom(address,address,uint256)": {
        "details": "See {IERC721-safeTransferFrom}."
      },
      "safeTransferFrom(address,address,uint256,bytes)": {
        "details": "See {IERC721-safeTransferFrom}."
      },
      "setApprovalForAll(address,bool)": {
        "details": "See {IERC721-setApprovalForAll}."
      },
      "supportsInterface(bytes4)": {
        "details": "See {IERC165-supportsInterface}. Time complexity O(1), guaranteed to always use less than 30 000 gas."
      },
      "symbol()": {
        "details": "See {IERC721Metadata-symbol}."
      },
      "tokenByIndex(uint256)": {
        "details": "See {IERC721Enumerable-tokenByIndex}."
      },
      "tokenOfOwnerByIndex(address,uint256)": {
        "details": "See {IERC721Enumerable-tokenOfOwnerByIndex}."
      },
      "tokenURI(uint256)": {
        "details": "See {IERC721Metadata-tokenURI}."
      },
      "totalSupply()": {
        "details": "See {IERC721Enumerable-totalSupply}."
      },
      "transferFrom(address,address,uint256)": {
        "details": "See {IERC721-transferFrom}."
      }
    },
    "version": 1
  },
  "userdoc": {
    "kind": "user",
    "methods": {},
    "version": 1
  }
}